:020000040800F2
:10000000B8270020510200085F02000861020008C2
:100010006302000865020008670200080000000093
:10002000000000000000000000000000690200085D
:100030006B020008000000006D0200086F0200085B
:1000400071020008710200087102000871020008C4
:1000500071020008710200087102000871020008B4
:1000600071020008710200087102000871020008A4
:100070007102000871020008710200087102000894
:100080007102000871020008710200087102000884
:100090007102000871020008710200087102000874
:1000A0007102000871020008710200087102000864
:1000B0007102000871020008710200087102000854
:1000C0007102000871020008710200087102000844
:1000D00071020008BD0900087102000871020008E1
:1000E0007102000871020008710200087102000824
:1000F0007102000871020008710200087102000814
:100100007102000871020008710200087102000803
:1001100071020008710200087102000871020008F3
:1001200071020008710200087102000871020008E3
:1001300071020008710200087102000871020008D3
:1001400071020008710200087102000871020008C3
:1001500071020008710200087102000871020008B3
:1001600071020008710200087102000871020008A3
:10017000710200087102000871020008000000000E
:100180007102000871020008710200087102000883
:100190007102000871020008710200087102000873
:1001A00071020008710200087102000800F002F8F4
:1001B00000F03EF80AA090E8000C82448344AAF1C3
:1001C0000107DA4501D100F033F8AFF2090EBAE8C1
:1001D0000F0013F0010F18BFFB1A43F0010318477B
:1001E0004C0B00006C0B0000103A24BF78C878C19B
:1001F000FAD8520724BF30C830C144BF04680C602D
:10020000704700000023002400250026103A28BF74
:1002100078C1FBD8520728BF30C148BF0B60704778
:10022000002070471FB500F069FD1FBD10B510BD5F
:1002300000F0A4F81146FFF7F5FF00F065FC00F0B0
:10024000C2F803B4FFF7F2FF03BC00F0F7FB0000B5
:100250000B48016841F4700101600A480047FEE75D
:10026000FEE7FEE7FEE7FEE7FEE7FEE7FEE7FEE766
:10027000FEE7000004480549034A054B70470000AB
:1002800088ED00E0AD010008B81F0020B82700206D
:10029000B81F0020704700000FB4044910B503AA2E
:1002A000029800F03DF810BC5DF814FB040000203B
:1002B0002DE9F0410E460446002020622046E16808
:1002C000884730B3252805D0D4E901219047206A1A
:1002D000401CF2E7E168204600278847050018D057
:1002E000A5F14100192802D820354FF400673246A5
:1002F000294620462760FFF793FF40B1012804D02C
:10030000F61D26F007060836D8E7361DD6E728463C
:10031000DAE7206ABDE8F0817047704770477047A0
:10032000074B70B50D467B4400F011F80446284693
:1003300000F020F810B14FF0FF3070BD204670BDC6
:10034000C307000001694A1C02610878704700B5C4
:100350008FB0CDE901310021059105497944CDE9FE
:10036000031011466846FFF7A3FF0FB000BD000061
:10037000E5FFFFFF007B00F080007047754600F04E
:100380002BF8AE4605006946534620F00700854627
:1003900018B020B5FFF76EFFBDE820404FF0000613
:1003A0004FF000074FF000084FF0000B21F007015D
:1003B000AC46ACE8C009ACE8C009ACE8C009ACE8A0
:1003C000C0098D46704710B50446AFF30080204643
:1003D000BDE81040FFF735BF00487047581F0020A8
:1003E00030B5CC1000F1200353F824304C07E50E53
:1003F0000F24AC40A343CD1000F1200444F8253075
:10040000CC1000F1200353F824304C07E40E02FA1C
:1004100004F42343CD1000F1200444F8253030BD0E
:100420002DE9F0470C46DDE90867002100258C46E0
:1004300000BF60E04FF0010808FA01F504EA050C7E
:10044000AC4557D1D0F800804FEA410A4FF003097C
:1004500009FA0AF928EA0908C0F80080D0F80080F3
:100460004FEA410902FA09F948EA0908C0F8008090
:10047000012A01D0022A27D1D0F808804FEA410A88
:100480004FF0030909FA0AF928EA0908C0F80880B8
:10049000D0F808804FEA410906FA09F948EA090844
:1004A000C0F80880D0F804904FF0010808FA01F86D
:1004B00029EA0809C0F80490D0F8048003FA01F989
:1004C00048EA0908C0F80480D0F80C804FEA410AD5
:1004D0004FF0030909FA0AF928EA0908C0F80C8064
:1004E000D0F80C804FEA410907FA09F948EA0908EF
:1004F000C0F80C80491C10299CD3BDE8F08700008F
:100500001CB51748006840F001001549086008460E
:10051000006840F0040008600846006840F0800071
:100520000860022000210B460A46CDE90010012197
:100530000C48FFF775FF012000210B460A46CDE964
:10054000001041030848FFF76BFF012000210B4614
:100550000A46CDE900100C210448FFF761FF1CBDDD
:10056000303802400000024000080240001C0240F7
:1005700010B5044614B101202149087020480078C4
:1005800048B32048006850B11E48001F006830B1D1
:100590001D48006818B11D48006801281BD10A20B9
:1005A00000F06AFA0020164908701648006808B979
:1005B000012010BD1348001F006808B90220F8E7A9
:1005C0001148006808B90320F3E7104800680128C3
:1005D00014D10420EDE70B48006801280ED109482A
:1005E000001F0068012809D107480068012805D1CB
:1005F0000648006810B90120014908700020D8E7BA
:10060000140000200C824342340241420002404266
:100610001CB50B48006840F0020009490860012041
:10062000032100230246CDE900100648FFF7F8FE3B
:100630000120054908600549C1F880021CBD000081
:100640003038024000040240848240420080404230
:100650002DE9F0410C461546069E444FB84209D993
:100660003946434F3F6847F48007DFF804C1CCF8B0
:10067000007008E03F493E4F3F6847F40017DFF83D
:10068000F0C0CCF8007000BF076807F00107002F2A
:10069000FAD1471A103F4FF0180CB7FBFCF7FAB22B
:1006A000062A10DBCF68A2F1060C0CEB4C0C4FEACB
:1006B0004C0C0CF1100C4FF03D0808FA0CF847EA0E
:1006C0000807CF602FE0042A0EDBCF68A2F1040CEC
:1006D0000CEB4C0C4FEA4C084FF03D0C0CFA08FCAC
:1006E00047EA0C07CF601EE0022A10DB8F68A2F1F8
:1006F000020C0CEB4C0C4FEA4C0C0CF1100C4FF0B4
:100700003D0808FA0CF847EA08078F600BE08F688D
:1007100002EB420C4FEA4C084FF03D0C0CFA08FC7F
:1007200047EA0C078F608560C3604660002707605A
:10073000076847F0400707600768076007680760B9
:10074000076847F480670760076807600768076005
:10075000076847F480370760076807600768076025
:10076000076847EA44670760BDE8F081006402401B
:100770003038024000600240026822F0010202604C
:1007800000BF026802F00102002AFAD1416002684B
:1007900042F00102026070472DE9F04107468846A9
:1007A00014461D46284600F033F8C5F1040007FA48
:1007B00000F60F20284100EA0800064306F00F0665
:1007C000E21704EBD2625211920002F1E022D2F859
:1007D00000212146E31704EBD3635B11A4EB431C18
:1007E000012303FA0CF31A432046E31704EBD36307
:1007F0005B119B0003F1E023C3F800210348005D77
:1008000040EA061001490855BDE8F08100E400E027
:100810000146072323EA01021202054B18684FF62E
:10082000FF031840034B18431043014B18607047F7
:100830000CED00E00000FA054A0A52020243014BA7
:100840001A60704708ED00E0F0B504460D46164604
:100850001F461448006840F001001249086000205B
:100860001049083108600F4800680F4908400D49D9
:1008700008600E48091D0860081F006820F48020E9
:10088000091F0860002007490C3108603B463246CA
:100890002946204600F00CF800210846FFF7CCFF5F
:1008A000F0BD000000380240FFFFF6FE10300024CB
:1008B000F0B504460D46002100203D4E366846F452
:1008C00080363B4F3E6001E04E1CB1B2384E366878
:1008D00006F400361EB941F6FF76B142F4DB41F66C
:1008E000FF76B14201D1012060E0314E40363668DA
:1008F00046F080562E4F40373E602E4E366846F406
:1009000040462C4F3E602A4E0836366846F4144660
:10091000274F08373E60264E366826F08076244FF3
:100920003E6045EA84160127C7EB520746EA0746B0
:1009300046EA036646F480061D4F3F1D3E603E1F9B
:10094000366846F080763F1F3E6000BF184E36681E
:1009500006F00076002EF9D0174E366846F4807601
:10096000154F3E603E46366846F400763E603E4691
:10097000366846F480663E603E46366846F00506B8
:100980003E600B4E0836366826F00306084F0837DF
:100990003E603E46366846F002063E6000BF044EAA
:1009A0000836366806F00C06082EF8D1F0BD0000B7
:1009B0000038024000700040003C02401C490968B9
:1009C00001F0200109B31A494968C8B219490988D8
:1009D00001F40041C9B91749098801F4804161B1A6
:1009E0000A2803D00021134A118020E01149098808
:1009F00041F400410F4A118019E00D2806D10D493C
:100A0000098841F480410B4A118010E009490988A6
:100A1000C1F30D01084A505406490988491C054A8A
:100A2000118011460988C72901DD00211180704716
:100A30000010014008000020901E002000BF7047F9
:100A40004FF0E021096921F004014FF0E02211612B
:100A5000C21700EB5272C2F3C702054B1A704FF473
:100A60007A714143C1F3CF01024A118070470000FF
:100A7000000000200200002070B504464FF407700B
:100A800094FBF0F0C6B24FF4077094FBF0F100FB5A
:100A9000114085B205E04FF4077000F009F8701EB0
:100AA000C6B2002EF7D115B1284600F001F870BD8E
:100AB00001460D4A12884A434FF0E0235A61002252
:100AC0009A6101221A6100BF4FF0E022106900F024
:100AD00001021AB100F48032002AF5D000224FF052
:100AE000E0231A619A6170470200002000BF054AA6
:100AF000126802F04002002AF9D0C2B2014B5A60DB
:100B0000704700000010014008B50025002600BF16
:100B10000823022219214FF4B470FFF795FEB42088
:100B2000FFF78EFF4FF4E1315A2000F067F8FFF72E
:100B30006FFDFFF7E5FC41F67860264B264A04215D
:100B400000902648FFF784FD2527002416E0BD42CB
:100B50000BDB26B10A201F49085500250CE00D20AB
:100B60001C490855701CC6B206E000261C48405DB2
:100B700018490855681CC5B2601C84B241F67860FB
:100B80008442E4DB1F2017490860002421E0002094
:100B9000FFF7EEFC0546012D0BD113A0FFF77CFB00
:100BA00080200D49091F486141F678610B48FFF725
:100BB000E3FD601C84B20A20FFF75EFF142C08D10D
:100BC0000D48006808B9012000E000200A490860CB
:100BD0000024DCE71800002004100140B864024043
:100BE000060D00080C0000200D0A444D4120444130
:100BF00054413A0D0A00000084824042F0B52DEDC8
:100C0000028B83B005460E46384905FB01F000EE25
:100C1000100AF8EE400A300100EE100AB8EE400A61
:100C200080EE801AB0EE418ABCEEC80A10EE100ABF
:100C300084B200EE104AB8EE400A38EE400AF3EEF5
:100C4000000A20EE200ABCEEC00A10EE107A4FF621
:100C5000FF7000EA0414E01984B22548006840F0EF
:100C600001002349086022481430006840F0100059
:100C70001F49143108600120022100230A46CDE9F2
:100C800000104FF4C0611B48FFF7CAFB072209217F
:100C90001848FFF7A5FB07220A211648FFF7A0FB1B
:100CA00015488460C06820F400401349C8600846B5
:100CB000C06840F00800C8600846C06840F0040002
:100CC000C8600846C06840F02000C86002232522A2
:100CD00003210846FFF760FD0748C06840F4005054
:100CE0000549C86003B0BDEC028BF0BD40420F0067
:100CF0003038024000000240001001404FF04070C8
:100D0000E1EE100A7047414C49454E54454B204195
:100D1000706F6C6C6F2053544D3332463420444D09
:100D20004120B4AEBFDACAB5D1E900004C0D0008CD
:100D30000000002018000000E8010008640D000811
:100D400018000020A0270000040200080000000096
:100D50000000000000000000000000FFFFFFFFFF98
:040D6000010000008E
:04000005080001AD41
:00000001FF
