:020000040800F2
:10000000D80900204D0200085B0200085D020008CC
:100010005F0200086102000863020008000000009F
:100020000000000000000000000000006502000861
:100030006702000800000000690200086B02000867
:100040006D0200086D0200086D0200086D020008D4
:100050006D0200086D0200086D0200086D020008C4
:100060006D0200086D0200086D0200086D020008B4
:100070006D0200086D0200086D0200086D020008A4
:100080006D0200086D0200086D0200086D02000894
:100090006D0200086D0200086D0200086D02000884
:1000A0006D0200086D0200086D0200086D02000874
:1000B0006D0200086D0200086D0200086D02000864
:1000C0006D0200086D0200086D0200086D02000854
:1000D0006D020008BD0800086D0200086D020008EE
:1000E0006D0200086D0200086D0200086D02000834
:1000F0006D0200086D0200086D0200086D02000824
:100100006D0200086D0200086D0200086D02000813
:100110006D0200086D0200086D0200086D02000803
:100120006D0200086D0200086D0200086D020008F3
:100130006D0200086D0200086D0200086D020008E3
:100140006D0200086D0200086D0200086D020008D3
:100150006D0200086D0200086D0200086D020008C3
:100160006D0200086D0200086D0200086D020008B3
:100170006D0200086D0200086D020008000000001A
:100180006D0200086D0200086D0200086D02000893
:100190006D0200086D0200086D0200086D02000883
:1001A0006D0200086D0200086D02000800F002F800
:1001B00000F03CF80AA090E8000C82448344AAF1C5
:1001C0000107DA4501D100F031F8AFF2090EBAE8C3
:1001D0000F0013F0010F18BFFB1A43F0010318477B
:1001E000E8090000080A0000103A24BF78C878C166
:1001F000FAD8520724BF30C830C144BF04680C602D
:10020000704700000023002400250026103A28BF74
:1002100078C1FBD8520728BF30C148BF0B60704778
:100220001FB500F0CBFC1FBD10B510BD00F07EF86F
:100230001146FFF7F5FF00F0B7FB00F09CF803B4A0
:10024000FFF7F2FF03BC00F057FB00000B4801680A
:1002500041F4700101600A480047FEE7FEE7FEE74F
:10026000FEE7FEE7FEE7FEE7FEE7FEE7FEE700004B
:1002700004480549034A054B7047000088ED00E03B
:10028000AD010008D8010020D8090020D8010020C5
:1002900070474FF000020429C0F0128010F0030CE8
:1002A00000F01F80CCF1040CBCF1020F18BF00F865
:1002B000012BA8BF20F8022BA1EB0C0100F011B814
:1002C0005FEAC17C24BF00F8012B00F8012B48BF76
:1002D00000F8012B704770477047704770474FF028
:1002E000000200B5134694469646203922BFA0E886
:1002F0000C50A0E80C50B1F12001BFF4F7AF090792
:1003000028BFA0E80C5048BF0CC05DF804EB890082
:1003100028BF40F8042B08BF704748BF20F8022BC5
:1003200011F0804F18BF00F8012B7047754600F0A0
:100330002BF8AE4605006946534620F00700854677
:1003400018B020B5FFF794FFBDE820404FF000063D
:100350004FF000074FF000084FF0000B21F00701AD
:10036000AC46ACE8C009ACE8C009ACE8C009ACE8F0
:10037000C0098D46704710B50446AFF30080204693
:10038000BDE81040FFF75BBF0048704774010020D4
:1003900030B5CC1000F1200353F824304C07E50EA3
:1003A0000F24AC40A343CD1000F1200444F82530C5
:1003B000CC1000F1200353F824304C07E40E02FA6D
:1003C00004F42343CD1000F1200444F8253030BD5F
:1003D0002DE9F0470C46DDE90867002100258C4631
:1003E00000BF60E04FF0010808FA01F504EA050CCF
:1003F000AC4557D1D0F800804FEA410A4FF00309CD
:1004000009FA0AF928EA0908C0F80080D0F8008043
:100410004FEA410902FA09F948EA0908C0F80080E0
:10042000012A01D0022A27D1D0F808804FEA410AD8
:100430004FF0030909FA0AF928EA0908C0F8088008
:10044000D0F808804FEA410906FA09F948EA090894
:10045000C0F80880D0F804904FF0010808FA01F8BD
:1004600029EA0809C0F80490D0F8048003FA01F9D9
:1004700048EA0908C0F80480D0F80C804FEA410A25
:100480004FF0030909FA0AF928EA0908C0F80C80B4
:10049000D0F80C804FEA410907FA09F948EA09083F
:1004A000C0F80C80491C10299CD3BDE8F0870000DF
:1004B0001CB50B48006840F00200094908600120A3
:1004C000032100230246CDE900100648FFF780FF14
:1004D0000120054908600549C1F880021CBD0000E3
:1004E0003038024000040240848240420080404292
:1004F0002DE9F0430C461546DDE90767DFF86CC1CE
:1005000060450BD96146DFF868C1DCF800C04CF4E7
:10051000800CDFF85C81C8F800C00AE05549DFF8BC
:1005200050C1DCF800C04CF4001CDFF84481C8F86E
:1005300000C000BFD0F800C00CF0010CBCF1000FEF
:10054000F8D1A0EB010CACF1100C4FF01808BCFB7B
:10055000F8FC0CF0FF02062A12DBD1F80CC0A2F165
:10056000060808EB48084FEA480808F110084FF061
:100570003D0909FA08F94CEA090CC1F80CC035E04C
:10058000042A10DBD1F80CC0A2F1040808EB4808DB
:100590004FEA48094FF03D0808FA09F84CEA080C00
:1005A000C1F80CC022E0022A12DBD1F808C0A2F187
:1005B000020808EB48084FEA480808F110084FF015
:1005C0003D0909FA08F94CEA090CC1F808C00DE028
:1005D000D1F808C002EB42084FEA48094FF03D0845
:1005E00008FA09F84CEA080CC1F808C08560C36035
:1005F00046604FF0000CC0F800C037B9D0F800C01A
:100600004CF0400CC0F800C003E0D0F800C0C0F8C7
:1006100000C0D0F800C0C0F800C0D0F800C0C0F8DA
:1006200000C0D0F800C04CF4806CC0F800C0D0F816
:1006300000C0C0F800C0D0F800C0C0F800C0D0F8BA
:1006400000C04CF4803CC0F800C0D0F800C0C0F836
:1006500000C0D0F800C0C0F800C0D0F800C04CEA1C
:10066000446CC0F800C0BDE8F083000000640240A4
:100670003038024000600240026822F0010202604D
:1006800000BF026802F00102002AFAD1416002684C
:1006900042F00102026070472DE9F04107468846AA
:1006A00014461D46284600F033F8C5F1040007FA49
:1006B00000F60F20284100EA0800064306F00F0666
:1006C000E21704EBD2625211920002F1E022D2F85A
:1006D00000212146E31704EBD3635B11A4EB431C19
:1006E000012303FA0CF31A432046E31704EBD36308
:1006F0005B119B0003F1E023C3F800210348005D78
:1007000040EA061001490855BDE8F08100E400E028
:100710000146072323EA01021202054B18684FF62F
:10072000FF031840034B18431043014B18607047F8
:100730000CED00E00000FA054A0A52020243014BA8
:100740001A60704708ED00E0F0B504460D46164605
:100750001F461448006840F001001249086000205C
:100760001049083108600F4800680F4908400D49DA
:1007700008600E48091D0860081F006820F48020EA
:10078000091F0860002007490C3108603B463246CB
:100790002946204600F00CF800210846FFF7CCFF60
:1007A000F0BD000000380240FFFFF6FE10300024CC
:1007B000F0B504460D46002100203D4E366846F453
:1007C00080363B4F3E6001E04E1CB1B2384E366879
:1007D00006F400361EB941F6FF76B142F4DB41F66D
:1007E000FF76B14201D1012060E0314E40363668DB
:1007F00046F080562E4F40373E602E4E366846F407
:1008000040462C4F3E602A4E0836366846F4144661
:10081000274F08373E60264E366826F08076244FF4
:100820003E6045EA84160127C7EB520746EA0746B1
:1008300046EA036646F480061D4F3F1D3E603E1F9C
:10084000366846F080763F1F3E6000BF184E36681F
:1008500006F00076002EF9D0174E366846F4807602
:10086000154F3E603E46366846F400763E603E4692
:10087000366846F480663E603E46366846F00506B9
:100880003E600B4E0836366826F00306084F0837E0
:100890003E603E46366846F002063E6000BF044EAB
:1008A0000836366806F00C06082EF8D1F0BD0000B8
:1008B0000038024000700040003C02400A490968CC
:1008C00001F0100171B10121084A1180084909683D
:1008D000C1F58071074A118003490968C8B202490D
:1008E0004968C8B270470000001001400C000020A9
:1008F000446402400E00002000BF70474FF0E0212A
:10090000096921F004014FF0E0221161C21700EBE8
:100910005272C2F3C702054B1A704FF47A71414309
:10092000C1F3CF01024A118070470000040000208B
:100930000600002070B504464FF4077094FBF0F0F9
:10094000C6B24FF4077094FBF0F100FB114085B282
:1009500005E04FF4077000F009F8701EC6B2002ED3
:10096000F7D115B1284600F001F870BD01460D4AD7
:1009700012884A434FF0E0235A6100229A61012213
:100980001A6100BF4FF0E022106900F001021AB1B5
:1009900000F48032002AF5D000224FF0E0231A61E3
:1009A0009A617047060000201CB508230222192115
:1009B0004FF4B470FFF7C8FEB420FFF79FFF4FF469
:1009C000E1315A2000F070F8FFF772FD0020642139
:1009D0002D4B2E4ACDE9001004212D48FFF788FD4C
:1009E000012001022B4B294ACDE90010042128489F
:1009F0007838FFF77DFD4FF4807125487838FFF790
:100A00003BFE4FF480712348FFF743FC3BE0224854
:100A10000088012819D1002405E01E48005D1A490C
:100A20000855601CC4B21D4800888442F5DB802054
:100A30001649091F4861194801881548FFF71CFE2F
:100A4000002015490880164908601148B43800682C
:100A500000F0006038B10E48AC38006840F000602B
:100A60000B49AC390860601CC4B20A20FFF762FF72
:100A7000142C08D10B48006808B9012000E00020C0
:100A8000084908600024C2E710000020041001405B
:100A9000B8640240740000200C0000200E0000200A
:100AA0000000002084824042F0B52DED028B83B01F
:100AB00005460E463D4905FB01F000EE100AF8EE32
:100AC000400A300100EE100AB8EE400A80EE801AAB
:100AD000B0EE418ABCEEC80A10EE100A84B200EEF5
:100AE000104AB8EE400A38EE400AF3EE000A20EE53
:100AF000200ABCEEC00A10EE107A4FF6FF7000EA32
:100B00000414E01984B22A48006840F00100284922
:100B1000086027481430006840F010002449143160
:100B200008600120022100230A46CDE900104FF49D
:100B3000C0612048FFF74CFC072209211D48FFF740
:100B400027FC07220A211B48FFF722FC1A48846071
:100B5000C06820F400401849C8600846C06840F0EA
:100B60000800C8600846406940F0800048610846B7
:100B7000C06840F00400C8600846C06840F010003B
:100B8000C8600846406940F04000486102232522C1
:100B900003210846FFF780FD0748C06840F4005075
:100BA0000549C86003B0BDEC028BF0BD40420F00A8
:100BB0003038024000000240001001404FF0407009
:100BC000E1EE100A70470000E80B0008000000206A
:100BD00010000000E8010008F80B000810000020D9
:100BE000C809000004020008000000000000000026
:080BF0000000000000000000FD
:04000005080001AD41
:00000001FF
